{
  "address": "0x0562eefAD05870Dd74dEE7d08a338182eB86De25",
  "abi": [
    {
      "inputs": [
        {
          "internalType": "address",
          "name": "_trustedForwarder",
          "type": "address"
        },
        {
          "internalType": "address",
          "name": "_passkeyVerifier",
          "type": "address"
        },
        {
          "internalType": "address",
          "name": "_recoveryVerifier",
          "type": "address"
        }
      ],
      "stateMutability": "nonpayable",
      "type": "constructor"
    },
    {
      "inputs": [],
      "name": "LUNA_IMPLEMENTATION",
      "outputs": [
        {
          "internalType": "contract Luna",
          "name": "",
          "type": "address"
        }
      ],
      "stateMutability": "view",
      "type": "function"
    },
    {
      "inputs": [
        {
          "internalType": "string",
          "name": "",
          "type": "string"
        }
      ],
      "name": "LunaNameToDetails",
      "outputs": [
        {
          "internalType": "address",
          "name": "walletAddress",
          "type": "address"
        },
        {
          "internalType": "bool",
          "name": "isUsed",
          "type": "bool"
        }
      ],
      "stateMutability": "view",
      "type": "function"
    },
    {
      "inputs": [
        {
          "internalType": "string",
          "name": "name",
          "type": "string"
        },
        {
          "internalType": "bytes",
          "name": "_passkeyInputs",
          "type": "bytes"
        },
        {
          "internalType": "bytes32",
          "name": "_recoveryHash",
          "type": "bytes32"
        },
        {
          "internalType": "string",
          "name": "_email",
          "type": "string"
        },
        {
          "internalType": "uint256",
          "name": "salt",
          "type": "uint256"
        }
      ],
      "name": "createAccount",
      "outputs": [
        {
          "internalType": "contract Luna",
          "name": "ret",
          "type": "address"
        }
      ],
      "stateMutability": "nonpayable",
      "type": "function"
    },
    {
      "inputs": [
        {
          "internalType": "string",
          "name": "name",
          "type": "string"
        },
        {
          "internalType": "bytes",
          "name": "proof",
          "type": "bytes"
        },
        {
          "internalType": "address[]",
          "name": "dests",
          "type": "address[]"
        },
        {
          "internalType": "uint256[]",
          "name": "values",
          "type": "uint256[]"
        },
        {
          "internalType": "bytes[]",
          "name": "funcs",
          "type": "bytes[]"
        }
      ],
      "name": "executeLunaBatchTx",
      "outputs": [
        {
          "internalType": "bool",
          "name": "",
          "type": "bool"
        }
      ],
      "stateMutability": "nonpayable",
      "type": "function"
    },
    {
      "inputs": [
        {
          "internalType": "string",
          "name": "name",
          "type": "string"
        },
        {
          "internalType": "bytes",
          "name": "proof",
          "type": "bytes"
        },
        {
          "internalType": "bytes32",
          "name": "_recoveryHash",
          "type": "bytes32"
        },
        {
          "internalType": "string",
          "name": "email",
          "type": "string"
        }
      ],
      "name": "executeLunaChangeRecovery",
      "outputs": [
        {
          "internalType": "bool",
          "name": "",
          "type": "bool"
        }
      ],
      "stateMutability": "nonpayable",
      "type": "function"
    },
    {
      "inputs": [
        {
          "internalType": "string",
          "name": "name",
          "type": "string"
        },
        {
          "internalType": "bytes",
          "name": "proof",
          "type": "bytes"
        },
        {
          "internalType": "bytes",
          "name": "_passkeyInput",
          "type": "bytes"
        }
      ],
      "name": "executeLunaPasskeyRecovery",
      "outputs": [
        {
          "internalType": "bool",
          "name": "",
          "type": "bool"
        }
      ],
      "stateMutability": "nonpayable",
      "type": "function"
    },
    {
      "inputs": [
        {
          "internalType": "string",
          "name": "name",
          "type": "string"
        },
        {
          "internalType": "bytes",
          "name": "proof",
          "type": "bytes"
        },
        {
          "internalType": "address",
          "name": "dest",
          "type": "address"
        },
        {
          "internalType": "uint256",
          "name": "value",
          "type": "uint256"
        },
        {
          "internalType": "bytes",
          "name": "func",
          "type": "bytes"
        }
      ],
      "name": "executeLunaTx",
      "outputs": [
        {
          "internalType": "bool",
          "name": "",
          "type": "bool"
        }
      ],
      "stateMutability": "nonpayable",
      "type": "function"
    },
    {
      "inputs": [
        {
          "internalType": "string",
          "name": "name",
          "type": "string"
        },
        {
          "internalType": "bytes",
          "name": "_passkeyInputs",
          "type": "bytes"
        },
        {
          "internalType": "bytes32",
          "name": "_recoveryHash",
          "type": "bytes32"
        },
        {
          "internalType": "string",
          "name": "_email",
          "type": "string"
        },
        {
          "internalType": "uint256",
          "name": "salt",
          "type": "uint256"
        }
      ],
      "name": "getAddress",
      "outputs": [
        {
          "internalType": "address",
          "name": "",
          "type": "address"
        }
      ],
      "stateMutability": "view",
      "type": "function"
    },
    {
      "inputs": [
        {
          "internalType": "string",
          "name": "name",
          "type": "string"
        }
      ],
      "name": "getLuna",
      "outputs": [
        {
          "components": [
            {
              "internalType": "address",
              "name": "walletAddress",
              "type": "address"
            },
            {
              "internalType": "bool",
              "name": "isUsed",
              "type": "bool"
            }
          ],
          "internalType": "struct LunaStorage.LunaDetails",
          "name": "",
          "type": "tuple"
        }
      ],
      "stateMutability": "view",
      "type": "function"
    },
    {
      "inputs": [
        {
          "internalType": "address",
          "name": "forwarder",
          "type": "address"
        }
      ],
      "name": "isTrustedForwarder",
      "outputs": [
        {
          "internalType": "bool",
          "name": "",
          "type": "bool"
        }
      ],
      "stateMutability": "view",
      "type": "function"
    }
  ],
  "transactionHash": "0x492589e807b934d2e5a08e7c4e2b54df6591571863c5e29f8a90a4f64d8a7386",
  "args": [
    "0xf1E842Ef0774dBE7CaF7f0F95d1315fD834d2a4b",
    "0xbb027482d1F79CeC2AaFA460C428C2A7AE74e970",
    "0x50F1bbb486D62921eD9cE411c6b85Ec0B73D9130"
  ],
  "numDeployments": 2,
  "solcInputHash": "c32d57473aede0cec5c502bb7c7f2b7e",
  "bytecode": "0x60c06040523480156200001157600080fd5b5060405162003e4438038062003e448339810160408190526200003491620000c9565b6001600160a01b0383166080526040518290829062000053906200009e565b6001600160a01b03928316815291166020820152604001604051809103906000f08015801562000087573d6000803e3d6000fd5b506001600160a01b031660a0525062000113915050565b6122d08062001b7483390190565b80516001600160a01b0381168114620000c457600080fd5b919050565b600080600060608486031215620000df57600080fd5b620000ea84620000ac565b9250620000fa60208501620000ac565b91506200010a60408501620000ac565b90509250925092565b60805160a051611a2d6200014760003960008181610226015281816104630152610632015260006103980152611a2d6000f3fe60806040523480156200001157600080fd5b5060043610620000ab5760003560e01c8063837b23dc116200006e578063837b23dc14620001c4578063a03dd85214620001db578063a608260914620001f2578063ad95b3b41462000209578063fc6eddc8146200022057600080fd5b80630b07f8f814620000b057806338cb879414620000f257806347a7f4a01462000155578063572b6c05146200017d578063699e21f51462000194575b600080fd5b620000c7620000c136600462000a95565b62000248565b6040805182516001600160a01b03168152602092830151151592810192909252015b60405180910390f35b620001356200010336600462000a95565b80516020818301810180516000825292820191909301209152546001600160a01b03811690600160a01b900460ff1682565b604080516001600160a01b039093168352901515602083015201620000e9565b6200016c6200016636600462000b22565b620002ad565b6040519015158152602001620000e9565b6200016c6200018e36600462000be1565b62000396565b620001ab620001a536600462000bff565b620003c8565b6040516001600160a01b039091168152602001620000e9565b6200016c620001d536600462000ca3565b6200051a565b620001ab620001ec36600462000bff565b62000600565b6200016c6200020336600462000d61565b620006eb565b6200016c6200021a36600462000e41565b620007c8565b620001ab7f000000000000000000000000000000000000000000000000000000000000000081565b6040805180820190915260008082526020820152600080836040516200026f919062000f62565b90815260408051918290036020908101832083830190925290546001600160a01b038116835260ff600160a01b909104161515908201529392505050565b6000620002ba3362000396565b620002e25760405162461bcd60e51b8152600401620002d99062000f80565b60405180910390fd5b85620002ee81620008b4565b6000808860405162000301919062000f62565b9081526040519081900360200181205463f54a736360e01b82526001600160a01b03169150819063f54a73639062000344908a908a908a908a9060040162001027565b6020604051808303816000875af115801562000364573d6000803e3d6000fd5b505050506040513d601f19601f820116820180604052508101906200038a919062001057565b98975050505050505050565b7f00000000000000000000000000000000000000000000000000000000000000006001600160a01b0390811691161490565b60008086604051620003db919062000f62565b9081526040519081900360200190205460ff600160a01b90910416156200042f576000866040516200040e919062000f62565b908152604051908190036020019020546001600160a01b0316905062000511565b600062000440878787878762000600565b90506001600160a01b0381163b80156200045d5750905062000511565b8360001b7f0000000000000000000000000000000000000000000000000000000000000000898989896040516024016200049b94939291906200107b565b60408051601f198184030181529181526020820180516001600160e01b0316630c4274f360e31b17905251620004d190620009dc565b620004de929190620010c0565b8190604051809103906000f5905080158015620004ff573d6000803e3d6000fd5b5092506200050e888462000927565b50505b95945050505050565b6000620005273362000396565b620005465760405162461bcd60e51b8152600401620002d99062000f80565b876200055281620008b4565b6000808a60405162000565919062000f62565b9081526040519081900360200181205463775a5d7f60e11b82526001600160a01b03169150819063eeb4bafe90620005ac908c908c908c908c908c908c90600401620010e6565b6020604051808303816000875af1158015620005cc573d6000803e3d6000fd5b505050506040513d601f19601f82011682018060405250810190620005f2919062001057565b9a9950505050505050505050565b6000620006e18260001b604051806020016200061c90620009dc565b6020820181038252601f19601f820116604052507f0000000000000000000000000000000000000000000000000000000000000000898989896040516024016200066a94939291906200107b565b60408051601f19818403018152918152602080830180516001600160e01b0316630c4274f360e31b1790529051620006a593929101620010c0565b60408051601f1981840301815290829052620006c5929160200162001134565b604051602081830303815290604052805190602001206200099c565b9695505050505050565b6000620006f83362000396565b620007175760405162461bcd60e51b8152600401620002d99062000f80565b846200072381620008b4565b6000808760405162000736919062000f62565b9081526040519081900360200181205463ca6c974d60e01b82526001600160a01b03169150819063ca6c974d90620007779089908990899060040162001167565b6020604051808303816000875af115801562000797573d6000803e3d6000fd5b505050506040513d601f19601f82011682018060405250810190620007bd919062001057565b979650505050505050565b6000620007d53362000396565b620007f45760405162461bcd60e51b8152600401620002d99062000f80565b896200080081620008b4565b6000808c60405162000813919062000f62565b90815260405190819003602001812054637659accb60e01b82526001600160a01b031691508190637659accb906200085e908e908e908e908e908e908e908e908e906004016200122a565b6020604051808303816000875af11580156200087e573d6000803e3d6000fd5b505050506040513d601f19601f82011682018060405250810190620008a4919062001057565b9c9b505050505050505050505050565b600081604051620008c6919062000f62565b9081526040519081900360200190205460ff600160a01b90910416620009245760405162461bcd60e51b81526020600482015260126024820152714c756e613a20496e76616c6964204c756e6160701b6044820152606401620002d9565b50565b6040805180820182526001600160a01b03831681526001602082015290516000906200095590859062000f62565b908152604051602091819003820190208251815493909201516001600160a01b039092166001600160a81b031990931692909217600160a01b911515919091021790555050565b6000620009ab838330620009b2565b9392505050565b6000604051836040820152846020820152828152600b8101905060ff815360559020949350505050565b61072780620012d183390190565b634e487b7160e01b600052604160045260246000fd5b600082601f83011262000a1257600080fd5b813567ffffffffffffffff8082111562000a305762000a30620009ea565b604051601f8301601f19908116603f0116810190828211818310171562000a5b5762000a5b620009ea565b8160405283815286602085880101111562000a7557600080fd5b836020870160208301376000602085830101528094505050505092915050565b60006020828403121562000aa857600080fd5b813567ffffffffffffffff81111562000ac057600080fd5b62000ace8482850162000a00565b949350505050565b60008083601f84011262000ae957600080fd5b50813567ffffffffffffffff81111562000b0257600080fd5b60208301915083602082850101111562000b1b57600080fd5b9250929050565b60008060008060006080868803121562000b3b57600080fd5b853567ffffffffffffffff8082111562000b5457600080fd5b62000b6289838a0162000a00565b9650602088013591508082111562000b7957600080fd5b62000b8789838a0162000ad6565b909650945060408801359350606088013591508082111562000ba857600080fd5b5062000bb78882890162000a00565b9150509295509295909350565b80356001600160a01b038116811462000bdc57600080fd5b919050565b60006020828403121562000bf457600080fd5b620009ab8262000bc4565b600080600080600060a0868803121562000c1857600080fd5b853567ffffffffffffffff8082111562000c3157600080fd5b62000c3f89838a0162000a00565b9650602088013591508082111562000c5657600080fd5b62000c6489838a0162000a00565b955060408801359450606088013591508082111562000c8257600080fd5b5062000c918882890162000a00565b95989497509295608001359392505050565b600080600080600080600060a0888a03121562000cbf57600080fd5b873567ffffffffffffffff8082111562000cd857600080fd5b62000ce68b838c0162000a00565b985060208a013591508082111562000cfd57600080fd5b62000d0b8b838c0162000ad6565b909850965086915062000d2160408b0162000bc4565b955060608a0135945060808a013591508082111562000d3f57600080fd5b5062000d4e8a828b0162000ad6565b989b979a50959850939692959293505050565b6000806000806060858703121562000d7857600080fd5b843567ffffffffffffffff8082111562000d9157600080fd5b62000d9f8883890162000a00565b9550602087013591508082111562000db657600080fd5b62000dc48883890162000ad6565b9095509350604087013591508082111562000dde57600080fd5b5062000ded8782880162000a00565b91505092959194509250565b60008083601f84011262000e0c57600080fd5b50813567ffffffffffffffff81111562000e2557600080fd5b6020830191508360208260051b850101111562000b1b57600080fd5b600080600080600080600080600060a08a8c03121562000e6057600080fd5b893567ffffffffffffffff8082111562000e7957600080fd5b62000e878d838e0162000a00565b9a5060208c013591508082111562000e9e57600080fd5b62000eac8d838e0162000ad6565b909a50985060408c013591508082111562000ec657600080fd5b62000ed48d838e0162000df9565b909850965060608c013591508082111562000eee57600080fd5b62000efc8d838e0162000df9565b909650945060808c013591508082111562000f1657600080fd5b5062000f258c828d0162000df9565b915080935050809150509295985092959850929598565b60005b8381101562000f5957818101518382015260200162000f3f565b50506000910152565b6000825162000f7681846020870162000f3c565b9190910192915050565b60208082526030908201527f4c756e61466163746f72793a2063616c6c6572206973206e6f7420746865207460408201526f393ab9ba32b2103337b93bb0b93232b960811b606082015260800190565b81835281816020850137506000828201602090810191909152601f909101601f19169091010190565b600081518084526200101381602086016020860162000f3c565b601f01601f19169290920160200192915050565b6060815260006200103d60608301868862000fd0565b8460208401528281036040840152620007bd818562000ff9565b6000602082840312156200106a57600080fd5b81518015158114620009ab57600080fd5b60808152600062001090608083018762000ff9565b8281036020840152620010a4818762000ff9565b90508460408401528281036060840152620007bd818562000ff9565b6001600160a01b038316815260406020820181905260009062000ace9083018462000ff9565b608081526000620010fc60808301888a62000fd0565b6001600160a01b03871660208401526040830186905282810360608401526200112781858762000fd0565b9998505050505050505050565b600083516200114881846020880162000f3c565b8351908301906200115e81836020880162000f3c565b01949350505050565b6040815260006200117d60408301858762000fd0565b8281036020840152620006e1818562000ff9565b81835260006020808501808196508560051b810191508460005b878110156200121d5782840389528135601e19883603018112620011ce57600080fd5b8701858101903567ffffffffffffffff811115620011eb57600080fd5b803603821315620011fb57600080fd5b6200120886828462000fd0565b9a87019a9550505090840190600101620011ab565b5091979650505050505050565b60808152600062001240608083018a8c62000fd0565b8281036020848101919091528882528991810160005b8a81101562001286576001600160a01b03620012728562000bc4565b168252928201929082019060010162001256565b5084810360408601528781526001600160fb1b03881115620012a757600080fd5b8760051b92508289838301379091018381038201606085015290620008a481830186886200119156fe608060405260405161072738038061072783398101604081905261002291610319565b61002e82826000610035565b5050610436565b61003e8361006b565b60008251118061004b5750805b156100665761006483836100ab60201b6100291760201c565b505b505050565b610074816100d7565b6040516001600160a01b038216907fbc7cd75a20ee27fd9adebab32041f755214dbc6bffa90cc0225b39da2e5c2d3b90600090a250565b60606100d08383604051806060016040528060278152602001610700602791396101a9565b9392505050565b6100ea8161022260201b6100551760201c565b6101515760405162461bcd60e51b815260206004820152602d60248201527f455243313936373a206e657720696d706c656d656e746174696f6e206973206e60448201526c1bdd08184818dbdb9d1c9858dd609a1b60648201526084015b60405180910390fd5b806101887f360894a13ba1a3210667c828492db98dca3e2076cc3735a920a3ca505d382bbc60001b61023160201b6100641760201c565b80546001600160a01b0319166001600160a01b039290921691909117905550565b6060600080856001600160a01b0316856040516101c691906103e7565b600060405180830381855af49150503d8060008114610201576040519150601f19603f3d011682016040523d82523d6000602084013e610206565b606091505b50909250905061021886838387610234565b9695505050505050565b6001600160a01b03163b151590565b90565b606083156102a357825160000361029c576001600160a01b0385163b61029c5760405162461bcd60e51b815260206004820152601d60248201527f416464726573733a2063616c6c20746f206e6f6e2d636f6e74726163740000006044820152606401610148565b50816102ad565b6102ad83836102b5565b949350505050565b8151156102c55781518083602001fd5b8060405162461bcd60e51b81526004016101489190610403565b634e487b7160e01b600052604160045260246000fd5b60005b838110156103105781810151838201526020016102f8565b50506000910152565b6000806040838503121561032c57600080fd5b82516001600160a01b038116811461034357600080fd5b60208401519092506001600160401b038082111561036057600080fd5b818501915085601f83011261037457600080fd5b815181811115610386576103866102df565b604051601f8201601f19908116603f011681019083821181831017156103ae576103ae6102df565b816040528281528860208487010111156103c757600080fd5b6103d88360208301602088016102f5565b80955050505050509250929050565b600082516103f98184602087016102f5565b9190910192915050565b60208152600082518060208401526104228160408501602087016102f5565b601f01601f19169190910160400192915050565b6102bb806104456000396000f3fe60806040523661001357610011610017565b005b6100115b610027610022610067565b61009f565b565b606061004e838360405180606001604052806027815260200161025f602791396100c3565b9392505050565b6001600160a01b03163b151590565b90565b600061009a7f360894a13ba1a3210667c828492db98dca3e2076cc3735a920a3ca505d382bbc546001600160a01b031690565b905090565b3660008037600080366000845af43d6000803e8080156100be573d6000f35b3d6000fd5b6060600080856001600160a01b0316856040516100e0919061020f565b600060405180830381855af49150503d806000811461011b576040519150601f19603f3d011682016040523d82523d6000602084013e610120565b606091505b50915091506101318683838761013b565b9695505050505050565b606083156101af5782516000036101a8576001600160a01b0385163b6101a85760405162461bcd60e51b815260206004820152601d60248201527f416464726573733a2063616c6c20746f206e6f6e2d636f6e747261637400000060448201526064015b60405180910390fd5b50816101b9565b6101b983836101c1565b949350505050565b8151156101d15781518083602001fd5b8060405162461bcd60e51b815260040161019f919061022b565b60005b838110156102065781810151838201526020016101ee565b50506000910152565b600082516102218184602087016101eb565b9190910192915050565b602081526000825180602084015261024a8160408501602087016101eb565b601f01601f1916919091016040019291505056fe416464726573733a206c6f772d6c6576656c2064656c65676174652063616c6c206661696c6564a2646970667358221220df5e088a16650cdc3010db20ecd1e2b26729605480c947e2f8d77aac24e8ff8464736f6c63430008110033416464726573733a206c6f772d6c6576656c2064656c65676174652063616c6c206661696c6564a26469706673582212201ce93aafabcdfc3dbe8b31512cd5a125d4abfcaa23f53846909c2a5596b6e49d64736f6c6343000811003360c06040523480156200001157600080fd5b50604051620022d0380380620022d0833981016040819052620000349162000069565b6001600160a01b039182166080521660a052620000a1565b80516001600160a01b03811681146200006457600080fd5b919050565b600080604083850312156200007d57600080fd5b62000088836200004c565b915062000098602084016200004c565b90509250929050565b60805160a0516121fb620000d560003960008181610369015261079a0152600081816102fd01526108fc01526121fb6000f3fe60806040526004361061012c5760003560e01c80637659accb116100a5578063bc197c811161006c578063bc197c811461038b578063ca6c974d146103ba578063d087d288146103cd578063eeb4bafe146103e2578063f23a6e61146103f5578063f54a73631461042257005b80637659accb146102c3578063820e93f5146102d65780638315ed85146102eb5780638ee06ddd14610337578063a8b56de21461035757005b80632e334452116100f45780632e3344521461021957806352a9674b146102435780636102495c146102585780636213a7981461026e57806362ccde241461028e57806364ddaf19146102a357005b806223de291461013557806301ffc9a71461015a578063150b7a021461018f57806329d8a8a1146101d45780632a1690cb146101f757005b3661013357005b005b34801561014157600080fd5b506101336101503660046116e0565b5050505050505050565b34801561016657600080fd5b5061017a61017536600461178a565b610435565b60405190151581526020015b60405180910390f35b34801561019b57600080fd5b506101bb6101aa3660046117b4565b630a85bd0160e11b95945050505050565b6040516001600160e01b03199091168152602001610186565b3480156101e057600080fd5b506101e9610487565b604051908152602001610186565b34801561020357600080fd5b5061020c610553565b6040516101869190611872565b34801561022557600080fd5b5061022e610574565b60408051928352602083019190915201610186565b34801561024f57600080fd5b5061020c61059b565b34801561026457600080fd5b506101e960035481565b34801561027a57600080fd5b50610133610289366004611948565b610629565b34801561029a57600080fd5b5061020c610747565b3480156102af57600080fd5b5061017a6102be3660046119d9565b610754565b61017a6102d1366004611a5e565b61081d565b3480156102e257600080fd5b5061020c610884565b3480156102f757600080fd5b5061031f7f000000000000000000000000000000000000000000000000000000000000000081565b6040516001600160a01b039091168152602001610186565b34801561034357600080fd5b5061017a6103523660046119d9565b610891565b34801561036357600080fd5b5061031f7f000000000000000000000000000000000000000000000000000000000000000081565b34801561039757600080fd5b506101bb6103a6366004611b0d565b63bc197c8160e01b98975050505050505050565b61017a6103c8366004611ba6565b610985565b3480156103d957600080fd5b506005546101e9565b61017a6103f0366004611c0e565b6109e4565b34801561040157600080fd5b506101bb610410366004611c9a565b63f23a6e6160e01b9695505050505050565b61017a610430366004611cff565b610a47565b60006001600160e01b03198216630a85bd0160e11b148061046657506001600160e01b03198216630271189760e51b145b8061048157506001600160e01b031982166301ffc9a760e01b145b92915050565b60008060008060006105226002805461049f90611d58565b80601f01602080910402602001604051908101604052809291908181526020018280546104cb90611d58565b80156105185780601f106104ed57610100808354040283529160200191610518565b820191906000526020600020905b8154815290600101906020018083116104fb57829003601f168201915b5050505050610aa7565b965096509650965050505061054a84848461054461053f60055490565b610b06565b85610b86565b94505050505090565b606060006105676002805461049f90611d58565b5092979650505050505050565b60008060008061058a6002805461049f90611d58565b509499939850929650505050505050565b600180546105a890611d58565b80601f01602080910402602001604051908101604052809291908181526020018280546105d490611d58565b80156106215780601f106105f657610100808354040283529160200191610621565b820191906000526020600020905b81548152906001019060200180831161060457829003601f168201915b505050505081565b600054610100900460ff16158080156106495750600054600160ff909116105b806106635750303b158015610663575060005460ff166001145b6106cb5760405162461bcd60e51b815260206004820152602e60248201527f496e697469616c697a61626c653a20636f6e747261637420697320616c72656160448201526d191e481a5b9a5d1a585b1a5e995960921b60648201526084015b60405180910390fd5b6000805460ff1916600117905580156106ee576000805461ff0019166101001790555b6106fa85858585610ddb565b8015610740576000805461ff0019169055604051600181527f7f26b83ff96e1f2b6a682f133852f6798a09c465da95921460cefb38474024989060200160405180910390a15b5050505050565b600280546105a890611d58565b60008061077061076b61076660055490565b610e06565b610e98565b9050600061078082600354610f19565b604051633a94343960e21b81529091506001600160a01b037f0000000000000000000000000000000000000000000000000000000000000000169063ea50d0e4906107d390889088908690600401611d92565b602060405180830381865afa1580156107f0573d6000803e3d6000fd5b505050506040513d601f19601f820116820180604052508101906108149190611e0b565b95945050505050565b60006108298989610fbd565b6108675760405162461bcd60e51b815260206004820152600f60248201526e496e76616c696420706173736b657960881b60448201526064016106c2565b610875878787878787611001565b50600198975050505050505050565b600480546105a890611d58565b60008060008060008060006108ac6002805461049f90611d58565b9650965096509650509550955060006108d38585856108cd61053f60055490565b86610b86565b905060006108e288888461118b565b604051633a94343960e21b81529091506001600160a01b037f0000000000000000000000000000000000000000000000000000000000000000169063ea50d0e490610935908e908e908690600401611d92565b602060405180830381865afa158015610952573d6000803e3d6000fd5b505050506040513d601f19601f820116820180604052508101906109769190611e0b565b9b9a5050505050505050505050565b60006109918484611284565b6109d05760405162461bcd60e51b815260206004820152601060248201526f496e76616c6964207265636f7665727960801b60448201526064016106c2565b6109d98261129e565b5060015b9392505050565b60006109f08787610fbd565b610a2e5760405162461bcd60e51b815260206004820152600f60248201526e496e76616c696420706173736b657960881b60448201526064016106c2565b610a3a858585856112ae565b5060019695505050505050565b6000610a538585611284565b610a925760405162461bcd60e51b815260206004820152601060248201526f496e76616c6964207265636f7665727960801b60448201526064016106c2565b610a9c83836112f5565b506001949350505050565b600080606080600060606000806000806000806000808e806020019051810190610ad19190611e95565b9650965096509650965096509650868686868686869d509d509d509d509d509d509d5050505050505050919395979092949650565b60606000600283604051602001610b1f91815260200190565b60408051601f1981840301815290829052610b3991611f61565b602060405180830381855afa158015610b56573d6000803e3d6000fd5b5050506040513d601f19601f82011682018060405250810190610b799190611f7d565b90506109dd81602061130b565b6000846001600160f81b0319168587602081518110610ba757610ba7611f96565b0160200151166001600160f81b03191614610bd557604051637e49a3c960e11b815260040160405180910390fd5b600083516001600160401b03811115610bf057610bf0611885565b6040519080825280601f01601f191660200182016040528015610c1a576020820181803683370190505b509050610c2c858483518460006114a6565b5080604051602001610c3e9190611f61565b6040516020818303038152906040528051906020012084604051602001610c659190611f61565b6040516020818303038152906040528051906020012014610c995760405163ebab5d2960e01b815260040160405180910390fd5b600087516020610ca99190611fc2565b6001600160401b03811115610cc057610cc0611885565b6040519080825280601f01601f191660200182016040528015610cea576020820181803683370190505b509050610cfd8860008a518460006114a6565b50610d7e600287604051610d119190611f61565b602060405180830381855afa158015610d2e573d6000803e3d6000fd5b5050506040513d601f19601f82011682018060405250810190610d519190611f7d565b604051602001610d6391815260200190565b60405160208183030381529060405260006020848c516114a6565b50600281604051610d8f9190611f61565b602060405180830381855afa158015610dac573d6000803e3d6000fd5b5050506040513d601f19601f82011682018060405250810190610dcf9190611f7d565b98975050505050505050565b6001610de7858261201b565b506002610df4848261201b565b5060038290556004610740828261201b565b60606000610e1383611534565b60010190506000816001600160401b03811115610e3257610e32611885565b6040519080825280601f01601f191660200182016040528015610e5c576020820181803683370190505b5090508181016020015b600019016f181899199a1a9b1b9c1cb0b131b232b360811b600a86061a8153600a8504945084610e6657509392505050565b6000806040518060400160405280601a81526020017f19457468657265756d205369676e6564204d6573736167653a0a00000000000081525090506000610edf8451610e06565b90506000828286604051602001610ef8939291906120da565b60408051601f19818403018152919052805160209091012095945050505050565b604080516021808252610440820190925260609160009190602082016104208036833701905050905060005b6020811015610f9657610f67858260208110610f6357610f63611f96565b1a90565b828281518110610f7957610f79611f96565b602090810291909101015280610f8e8161211d565b915050610f45565b508281602081518110610fab57610fab611f96565b60209081029190910101529392505050565b6000806000806000806000610fd86002805461049f90611d58565b9650965096509650509550955060006108d38585856108cd61053f600580546001810190915590565b8481148015611017575082158061101757508281145b6110595760405162461bcd60e51b815260206004820152601360248201527277726f6e67206172726179206c656e6774687360681b60448201526064016106c2565b600083900361110f5760005b85811015611109576110f787878381811061108257611082611f96565b90506020020160208101906110979190612136565b60008585858181106110ab576110ab611f96565b90506020028101906110bd9190612151565b8080601f01602080910402602001604051908101604052809392919081815260200183838082843760009201919091525061160c92505050565b806111018161211d565b915050611065565b50611183565b60005b858110156111815761116f87878381811061112f5761112f611f96565b90506020020160208101906111449190612136565b86868481811061115657611156611f96565b905060200201358585858181106110ab576110ab611f96565b806111798161211d565b915050611112565b505b505050505050565b604080516060808252610c2082019092526000908260208201610c008036833701905050905060005b602081101561127b576111d2868260208110610f6357610f63611f96565b8282815181106111e4576111e4611f96565b602002602001018181525050611205858260208110610f6357610f63611f96565b82611211836020611fc2565b8151811061122157611221611f96565b602002602001018181525050611242848260208110610f6357610f63611f96565b8261124e836040611fc2565b8151811061125e5761125e611f96565b6020908102919091010152806112738161211d565b9150506111b4565b50949350505050565b60008061077061076b610766600580546001810190915590565b60026112aa828261201b565b5050565b6112ef848484848080601f01602080910402602001604051908101604052809392919081815260200183838082843760009201919091525061160c92505050565b50505050565b60038290556004611306828261201b565b505050565b6060600061131a836002612197565b611325906002611fc2565b6001600160401b0381111561133c5761133c611885565b6040519080825280601f01601f191660200182016040528015611366576020820181803683370190505b509050600360fc1b8160008151811061138157611381611f96565b60200101906001600160f81b031916908160001a905350600f60fb1b816001815181106113b0576113b0611f96565b60200101906001600160f81b031916908160001a90535060006113d4846002612197565b6113df906001611fc2565b90505b6001811115611457576f181899199a1a9b1b9c1cb0b131b232b360811b85600f166010811061141357611413611f96565b1a60f81b82828151811061142957611429611f96565b60200101906001600160f81b031916908160001a90535060049490941c93611450816121ae565b90506113e2565b5083156109dd5760405162461bcd60e51b815260206004820181905260248201527f537472696e67733a20686578206c656e67746820696e73756666696369656e7460448201526064016106c2565b606060006114b48386611fc2565b905080845110156114c457600080fd5b60006114d1876020611fc2565b905060006114e0856020611fc2565b90505b866114ef896020611fc2565b6114f99190611fc2565b821015611527578882015186820152611513602083611fc2565b9150611520602082611fc2565b90506114e3565b5093979650505050505050565b60008072184f03e93ff9f4daa797ed6e38ed64bf6a1f0160401b83106115735772184f03e93ff9f4daa797ed6e38ed64bf6a1f0160401b830492506040015b6d04ee2d6d415b85acef8100000000831061159f576d04ee2d6d415b85acef8100000000830492506020015b662386f26fc1000083106115bd57662386f26fc10000830492506010015b6305f5e10083106115d5576305f5e100830492506008015b61271083106115e957612710830492506004015b606483106115fb576064830492506002015b600a83106104815760010192915050565b600080846001600160a01b031684846040516116289190611f61565b60006040518083038185875af1925050503d8060008114611665576040519150601f19603f3d011682016040523d82523d6000602084013e61166a565b606091505b50915091508161074057805160208201fd5b80356001600160a01b038116811461169357600080fd5b919050565b60008083601f8401126116aa57600080fd5b5081356001600160401b038111156116c157600080fd5b6020830191508360208285010111156116d957600080fd5b9250929050565b60008060008060008060008060c0898b0312156116fc57600080fd5b6117058961167c565b975061171360208a0161167c565b965061172160408a0161167c565b95506060890135945060808901356001600160401b038082111561174457600080fd5b6117508c838d01611698565b909650945060a08b013591508082111561176957600080fd5b506117768b828c01611698565b999c989b5096995094979396929594505050565b60006020828403121561179c57600080fd5b81356001600160e01b0319811681146109dd57600080fd5b6000806000806000608086880312156117cc57600080fd5b6117d58661167c565b94506117e36020870161167c565b93506040860135925060608601356001600160401b0381111561180557600080fd5b61181188828901611698565b969995985093965092949392505050565b60005b8381101561183d578181015183820152602001611825565b50506000910152565b6000815180845261185e816020860160208601611822565b601f01601f19169290920160200192915050565b6020815260006109dd6020830184611846565b634e487b7160e01b600052604160045260246000fd5b604051601f8201601f191681016001600160401b03811182821017156118c3576118c3611885565b604052919050565b60006001600160401b038211156118e4576118e4611885565b50601f01601f191660200190565b600082601f83011261190357600080fd5b8135611916611911826118cb565b61189b565b81815284602083860101111561192b57600080fd5b816020850160208301376000918101602001919091529392505050565b6000806000806080858703121561195e57600080fd5b84356001600160401b038082111561197557600080fd5b611981888389016118f2565b9550602087013591508082111561199757600080fd5b6119a3888389016118f2565b94506040870135935060608701359150808211156119c057600080fd5b506119cd878288016118f2565b91505092959194509250565b600080602083850312156119ec57600080fd5b82356001600160401b03811115611a0257600080fd5b611a0e85828601611698565b90969095509350505050565b60008083601f840112611a2c57600080fd5b5081356001600160401b03811115611a4357600080fd5b6020830191508360208260051b85010111156116d957600080fd5b6000806000806000806000806080898b031215611a7a57600080fd5b88356001600160401b0380821115611a9157600080fd5b611a9d8c838d01611698565b909a50985060208b0135915080821115611ab657600080fd5b611ac28c838d01611a1a565b909850965060408b0135915080821115611adb57600080fd5b611ae78c838d01611a1a565b909650945060608b0135915080821115611b0057600080fd5b506117768b828c01611a1a565b60008060008060008060008060a0898b031215611b2957600080fd5b611b328961167c565b9750611b4060208a0161167c565b965060408901356001600160401b0380821115611b5c57600080fd5b611b688c838d01611a1a565b909850965060608b0135915080821115611b8157600080fd5b611b8d8c838d01611a1a565b909650945060808b013591508082111561176957600080fd5b600080600060408486031215611bbb57600080fd5b83356001600160401b0380821115611bd257600080fd5b611bde87838801611698565b90955093506020860135915080821115611bf757600080fd5b50611c04868287016118f2565b9150509250925092565b60008060008060008060808789031215611c2757600080fd5b86356001600160401b0380821115611c3e57600080fd5b611c4a8a838b01611698565b9098509650869150611c5e60208a0161167c565b9550604089013594506060890135915080821115611c7b57600080fd5b50611c8889828a01611698565b979a9699509497509295939492505050565b60008060008060008060a08789031215611cb357600080fd5b611cbc8761167c565b9550611cca6020880161167c565b9450604087013593506060870135925060808701356001600160401b03811115611cf357600080fd5b611c8889828a01611698565b60008060008060608587031215611d1557600080fd5b84356001600160401b0380821115611d2c57600080fd5b611d3888838901611698565b90965094506020870135935060408701359150808211156119c057600080fd5b600181811c90821680611d6c57607f821691505b602082108103611d8c57634e487b7160e01b600052602260045260246000fd5b50919050565b60408152826040820152828460608301376000606084830101526000601f19601f8501168201606081016020606085840301818601528186518084526080850191508288019450600093505b80841015611dfe5784518252938201936001939093019290820190611dde565b5098975050505050505050565b600060208284031215611e1d57600080fd5b815180151581146109dd57600080fd5b6000611e3b611911846118cb565b9050828152838383011115611e4f57600080fd5b6109dd836020830184611822565b600082601f830112611e6e57600080fd5b6109dd83835160208501611e2d565b80516001600160f81b03198116811461169357600080fd5b600080600080600080600060e0888a031215611eb057600080fd5b875196506020880151955060408801516001600160401b0380821115611ed557600080fd5b818a0191508a601f830112611ee957600080fd5b611ef88b835160208501611e2d565b965060608a0151915080821115611f0e57600080fd5b611f1a8b838c01611e5d565b9550611f2860808b01611e7d565b945060a08a0151915080821115611f3e57600080fd5b50611f4b8a828b01611e5d565b92505060c0880151905092959891949750929550565b60008251611f73818460208701611822565b9190910192915050565b600060208284031215611f8f57600080fd5b5051919050565b634e487b7160e01b600052603260045260246000fd5b634e487b7160e01b600052601160045260246000fd5b8082018082111561048157610481611fac565b601f82111561130657600081815260208120601f850160051c81016020861015611ffc5750805b601f850160051c820191505b8181101561118357828155600101612008565b81516001600160401b0381111561203457612034611885565b612048816120428454611d58565b84611fd5565b602080601f83116001811461207d57600084156120655750858301515b600019600386901b1c1916600185901b178555611183565b600085815260208120601f198616915b828110156120ac5788860151825594840194600190910190840161208d565b50858210156120ca5787850151600019600388901b60f8161c191681555b5050505050600190811b01905550565b600084516120ec818460208901611822565b845190830190612100818360208901611822565b8451910190612113818360208801611822565b0195945050505050565b60006001820161212f5761212f611fac565b5060010190565b60006020828403121561214857600080fd5b6109dd8261167c565b6000808335601e1984360301811261216857600080fd5b8301803591506001600160401b0382111561218257600080fd5b6020019150368190038213156116d957600080fd5b808202811582820484141761048157610481611fac565b6000816121bd576121bd611fac565b50600019019056fea2646970667358221220800ed371bda24141e3bc1c5aa41924570e29db8803491a74c0bf2a8382b5493e64736f6c63430008110033",
  "devdoc": {
    "kind": "dev",
    "methods": {},
    "version": 1
  },
  "userdoc": {
    "kind": "user",
    "methods": {},
    "version": 1
  },
  "storageLayout": {
    "storage": [
      {
        "astId": 3563,
        "contract": "contracts/LunaFactory.sol:LunaFactory",
        "label": "LunaNameToDetails",
        "offset": 0,
        "slot": "0",
        "type": "t_mapping(t_string_memory_ptr,t_struct(LunaDetails)3558_storage)"
      }
    ],
    "types": {
      "t_address": {
        "encoding": "inplace",
        "label": "address",
        "numberOfBytes": "20"
      },
      "t_bool": {
        "encoding": "inplace",
        "label": "bool",
        "numberOfBytes": "1"
      },
      "t_mapping(t_string_memory_ptr,t_struct(LunaDetails)3558_storage)": {
        "encoding": "mapping",
        "key": "t_string_memory_ptr",
        "label": "mapping(string => struct LunaStorage.LunaDetails)",
        "numberOfBytes": "32",
        "value": "t_struct(LunaDetails)3558_storage"
      },
      "t_string_memory_ptr": {
        "encoding": "bytes",
        "label": "string",
        "numberOfBytes": "32"
      },
      "t_struct(LunaDetails)3558_storage": {
        "encoding": "inplace",
        "label": "struct LunaStorage.LunaDetails",
        "members": [
          {
            "astId": 3555,
            "contract": "contracts/LunaFactory.sol:LunaFactory",
            "label": "walletAddress",
            "offset": 0,
            "slot": "0",
            "type": "t_address"
          },
          {
            "astId": 3557,
            "contract": "contracts/LunaFactory.sol:LunaFactory",
            "label": "isUsed",
            "offset": 20,
            "slot": "0",
            "type": "t_bool"
          }
        ],
        "numberOfBytes": "32"
      }
    }
  }
}