{
  "address": "0x1Baf9847E474b1B548545b92F5186097DB4E77B1",
  "abi": [
    {
      "inputs": [
        {
          "internalType": "address",
          "name": "_trustedForwarder",
          "type": "address"
        },
        {
          "internalType": "address",
          "name": "_passkeyVerifier",
          "type": "address"
        },
        {
          "internalType": "address",
          "name": "_recoveryVerifier",
          "type": "address"
        }
      ],
      "stateMutability": "nonpayable",
      "type": "constructor"
    },
    {
      "inputs": [],
      "name": "LUNA_IMPLEMENTATION",
      "outputs": [
        {
          "internalType": "contract Luna",
          "name": "",
          "type": "address"
        }
      ],
      "stateMutability": "view",
      "type": "function"
    },
    {
      "inputs": [
        {
          "internalType": "string",
          "name": "",
          "type": "string"
        }
      ],
      "name": "LunaNameToDetails",
      "outputs": [
        {
          "internalType": "address",
          "name": "walletAddress",
          "type": "address"
        },
        {
          "internalType": "bool",
          "name": "isUsed",
          "type": "bool"
        }
      ],
      "stateMutability": "view",
      "type": "function"
    },
    {
      "inputs": [
        {
          "internalType": "string",
          "name": "name",
          "type": "string"
        },
        {
          "internalType": "bytes",
          "name": "_passkeyInputs",
          "type": "bytes"
        },
        {
          "internalType": "bytes32",
          "name": "_recoveryHash",
          "type": "bytes32"
        },
        {
          "internalType": "string",
          "name": "_email",
          "type": "string"
        },
        {
          "internalType": "uint256",
          "name": "salt",
          "type": "uint256"
        }
      ],
      "name": "createAccount",
      "outputs": [
        {
          "internalType": "contract Luna",
          "name": "ret",
          "type": "address"
        }
      ],
      "stateMutability": "nonpayable",
      "type": "function"
    },
    {
      "inputs": [
        {
          "internalType": "string",
          "name": "name",
          "type": "string"
        },
        {
          "internalType": "bytes",
          "name": "proof",
          "type": "bytes"
        },
        {
          "internalType": "bytes",
          "name": "authenticatorData",
          "type": "bytes"
        },
        {
          "internalType": "bytes1",
          "name": "authenticatorDataFlagMask",
          "type": "bytes1"
        },
        {
          "internalType": "bytes",
          "name": "clientData",
          "type": "bytes"
        },
        {
          "internalType": "uint256",
          "name": "clientChallengeDataOffset",
          "type": "uint256"
        },
        {
          "internalType": "address[]",
          "name": "dests",
          "type": "address[]"
        },
        {
          "internalType": "uint256[]",
          "name": "values",
          "type": "uint256[]"
        },
        {
          "internalType": "bytes[]",
          "name": "funcs",
          "type": "bytes[]"
        }
      ],
      "name": "executeLunaBatchTx",
      "outputs": [
        {
          "internalType": "bool",
          "name": "",
          "type": "bool"
        }
      ],
      "stateMutability": "nonpayable",
      "type": "function"
    },
    {
      "inputs": [
        {
          "internalType": "string",
          "name": "name",
          "type": "string"
        },
        {
          "internalType": "bytes",
          "name": "proof",
          "type": "bytes"
        },
        {
          "internalType": "bytes32",
          "name": "_recoveryHash",
          "type": "bytes32"
        },
        {
          "internalType": "string",
          "name": "email",
          "type": "string"
        }
      ],
      "name": "executeLunaChangeRecovery",
      "outputs": [
        {
          "internalType": "bool",
          "name": "",
          "type": "bool"
        }
      ],
      "stateMutability": "nonpayable",
      "type": "function"
    },
    {
      "inputs": [
        {
          "internalType": "string",
          "name": "name",
          "type": "string"
        },
        {
          "internalType": "bytes",
          "name": "proof",
          "type": "bytes"
        },
        {
          "internalType": "bytes",
          "name": "_passkeyInput",
          "type": "bytes"
        }
      ],
      "name": "executeLunaPasskeyRecovery",
      "outputs": [
        {
          "internalType": "bool",
          "name": "",
          "type": "bool"
        }
      ],
      "stateMutability": "nonpayable",
      "type": "function"
    },
    {
      "inputs": [
        {
          "internalType": "string",
          "name": "name",
          "type": "string"
        },
        {
          "internalType": "bytes",
          "name": "proof",
          "type": "bytes"
        },
        {
          "internalType": "bytes",
          "name": "authenticatorData",
          "type": "bytes"
        },
        {
          "internalType": "bytes1",
          "name": "authenticatorDataFlagMask",
          "type": "bytes1"
        },
        {
          "internalType": "bytes",
          "name": "clientData",
          "type": "bytes"
        },
        {
          "internalType": "uint256",
          "name": "clientChallengeDataOffset",
          "type": "uint256"
        },
        {
          "internalType": "address",
          "name": "dest",
          "type": "address"
        },
        {
          "internalType": "uint256",
          "name": "value",
          "type": "uint256"
        },
        {
          "internalType": "bytes",
          "name": "func",
          "type": "bytes"
        }
      ],
      "name": "executeLunaTx",
      "outputs": [
        {
          "internalType": "bool",
          "name": "",
          "type": "bool"
        }
      ],
      "stateMutability": "nonpayable",
      "type": "function"
    },
    {
      "inputs": [
        {
          "internalType": "string",
          "name": "name",
          "type": "string"
        },
        {
          "internalType": "bytes",
          "name": "_passkeyInputs",
          "type": "bytes"
        },
        {
          "internalType": "bytes32",
          "name": "_recoveryHash",
          "type": "bytes32"
        },
        {
          "internalType": "string",
          "name": "_email",
          "type": "string"
        },
        {
          "internalType": "uint256",
          "name": "salt",
          "type": "uint256"
        }
      ],
      "name": "getAddress",
      "outputs": [
        {
          "internalType": "address",
          "name": "",
          "type": "address"
        }
      ],
      "stateMutability": "view",
      "type": "function"
    },
    {
      "inputs": [
        {
          "internalType": "string",
          "name": "name",
          "type": "string"
        }
      ],
      "name": "getLuna",
      "outputs": [
        {
          "components": [
            {
              "internalType": "address",
              "name": "walletAddress",
              "type": "address"
            },
            {
              "internalType": "bool",
              "name": "isUsed",
              "type": "bool"
            }
          ],
          "internalType": "struct LunaStorage.LunaDetails",
          "name": "",
          "type": "tuple"
        }
      ],
      "stateMutability": "view",
      "type": "function"
    },
    {
      "inputs": [
        {
          "internalType": "address",
          "name": "forwarder",
          "type": "address"
        }
      ],
      "name": "isTrustedForwarder",
      "outputs": [
        {
          "internalType": "bool",
          "name": "",
          "type": "bool"
        }
      ],
      "stateMutability": "view",
      "type": "function"
    }
  ],
  "transactionHash": "0x5a8606d11b159ea627d17435c7fe9b6aeb66248f14a86265a9b43071746b12fc",
  "args": [
    "0xf1E842Ef0774dBE7CaF7f0F95d1315fD834d2a4b",
    "0xbb027482d1F79CeC2AaFA460C428C2A7AE74e970",
    "0x50F1bbb486D62921eD9cE411c6b85Ec0B73D9130"
  ],
  "numDeployments": 3,
  "solcInputHash": "9fa5c5ed27d22fba8da41a5d38b3d7f2",
  "bytecode": "0x60c06040523462000052575b620000206200001962000132565b9162000181565b6040516125d7620001ee823960805181610c50015260a051818181610c0e01528181610db70152610f4501526125d790f35b6200005b600080fd5b6200000b565b600080fd5b50634e487b7160e01b600052604160045260246000fd5b90601f01601f191681019081106001600160401b038211176200009f57604052565b620000a962000066565b604052565b90620000c5620000bd60405190565b92836200007d565b565b90565b6001600160a01b038116036200006157565b90505190620000c582620000ca565b909160608284031262000123575b620000c7620001098484620000dc565b93620001198160208601620000dc565b93604001620000dc565b6200012c600080fd5b620000f9565b620001556200533f803803806200014981620000ae565b928339810190620000eb565b909192565b6001600160a01b0391821681529116602082015260400190565b506040513d6000823e3d90fd5b608052620001bd6200019260405190565b928392612b7a84016001600160401b03811185821017620001dd575b612b7a620027c586396200015a565b03906000f08015620001ce5760a052565b620001d862000174565b60a052565b620001e762000066565b620001ae56fe608060405260043610156200001a575b62000018600080fd5b005b60003560e01c80630b07f8f814620000ff57806338cb879414620000f457806347a7f4a014620000e9578063572b6c0514620000de578063699e21f514620000d3578063a03dd85214620000c8578063a608260914620000bd578063d52200dc14620000b2578063efda3cf614620000a75763fc6eddc8036200000f57620000a162000bf3565b6200000f565b50620000a162000ba8565b50620000a162000a41565b50620000a162000828565b50620000a162000739565b50620000a1620006f6565b50620000a1620005be565b50620000a162000536565b50620000a1620003ba565b50620000a1620002a4565b600080fd5b601f01601f191690565b50634e487b7160e01b600052604160045260246000fd5b90601f01601f191681019081106001600160401b038211176200015257604052565b6200015c62000119565b604052565b90620001786200017060405190565b928362000130565b565b6200019a6020916001600160401b0381116200019e57601f01601f191690565b0190565b6200010f62000119565b90826000939282370152565b9291906200017891620001d1620001cb836200017a565b62000161565b9482865260208601918382011115620001a857620001ed600080fd5b620001a8565b90620002129181601f8201121562000215575b602081359101620001b4565b90565b6200021e600080fd5b62000206565b9062000212916020818303126200025f575b8035906001600160401b03821162000250575b01620001f3565b62000259600080fd5b62000249565b62000268600080fd5b62000236565b6001600160a01b031690565b9052565b60408101929162000178919080516001600160a01b031682526020908101511515910152565b5034620002d8575b620002d4620002c7620002c136600462000224565b620018ed565b604051918291826200027e565b0390f35b620002e1600080fd5b620002ac565b60005b838110620002fb5750506000910152565b8181015183820152602001620002ea565b6200019a620003279260209262000321815190565b94859290565b93849101620002e7565b620003446200019a91602094936200030c565b918252565b620003616200035760405190565b9283928362000331565b03902090565b620002129162000349565b620002129060a01c60ff1690565b62000212905462000372565b6200039990600062000367565b90620002126000620003b284546001600160a01b031690565b930162000380565b503462000407575b620003d9620003d336600462000224565b6200038c565b90620002d4620003e860405190565b6001600160a01b03909216825291151560208201529081906040820190565b62000410600080fd5b620003c2565b909182601f830112156200045f575b60208235926001600160401b03841162000450575b0192828401116200044757565b62000178600080fd5b62000459600080fd5b6200043a565b62000468600080fd5b62000425565b805b036200010a57565b9050359062000178826200046e565b620002129060808184031262000527575b620004b78382356001600160401b03811162000518575b8301620001f3565b93620004da8460208401356001600160401b03811162000509575b840162000416565b939094620004ec816040860162000478565b936060810135906001600160401b038211620002505701620001f3565b62000512600080fd5b620004d2565b62000521600080fd5b620004af565b62000530600080fd5b62000498565b50346200056f575b620002d46200055d6200055336600462000487565b9392909262001716565b60405191829182901515815260200190565b62000578600080fd5b6200053e565b6001600160a01b03811662000470565b9050359062000178826200057e565b906200021291602081830312156200058e57620005b8600080fd5b6200058e565b5034620005e1575b620002d46200055d620005db3660046200059d565b62000c42565b620005ea600080fd5b620005c6565b919060a0838203126200069e575b6200061d8184356001600160401b0381116200068f575b8501620001f3565b926200063f8260208301356001600160401b03811162000518578301620001f3565b926200021262000653846040850162000478565b93620006768160608601356001600160401b03811162000680575b8601620001f3565b9360800162000478565b62000689600080fd5b6200066e565b62000698600080fd5b62000615565b620006a7600080fd5b620005fe565b62000212906200026e906001600160a01b031682565b6200021290620006ad565b6200021290620006c3565b6200027a90620006ce565b602081019291620001789190620006d9565b50346200072a575b620002d46200071d62000713366004620005f0565b9392909262000d3e565b60405191829182620006e4565b62000733600080fd5b620006fe565b50346200077a575b620002d46200076062000756366004620005f0565b9392909262000eea565b604051918291826001600160a01b03909116815260200190565b62000783600080fd5b62000741565b9060608282031262000819575b620007b58183356001600160401b0381116200080a575b8401620001f3565b9262000212620007dc8360208601356001600160401b038111620007fb575b860162000416565b9390946040810135906001600160401b038211620002505701620001f3565b62000804600080fd5b620007d4565b62000813600080fd5b620007ad565b62000822600080fd5b62000796565b50346200084f575b620002d46200055d6200084536600462000789565b9291909162001640565b62000858600080fd5b62000830565b6001600160f81b0319811662000470565b9050359062000178826200085e565b909182601f83011215620008c1575b60208235926001600160401b038411620008b2575b0192602083028401116200044757565b620008bb600080fd5b620008a2565b620008ca600080fd5b6200088d565b916101208383031262000a32575b620008fc8284356001600160401b0381116200068f578501620001f3565b926200091f8360208301356001600160401b03811162000a23575b830162000416565b929093620009438160408501356001600160401b0381116200068f578501620001f3565b926200095382606083016200086f565b92620009758360808401356001600160401b0381116200080a578401620001f3565b92620009858160a0850162000478565b92620009a88260c08301356001600160401b03811162000a14575b83016200087e565b929093620009f2620009d18360e08601356001600160401b03811162000a05575b86016200087e565b939094610100810135906001600160401b038211620009f6575b016200087e565b9091565b620009ff600080fd5b620009eb565b62000a0e600080fd5b620009c9565b62000a1d600080fd5b620009a0565b62000a2c600080fd5b62000917565b62000a3b600080fd5b620008de565b503462000a74575b620002d46200055d62000a5e366004620008d0565b9b9a909a99919998929897939796949662001556565b62000a7d600080fd5b62000a49565b906101208282031262000b99575b62000aaf8183356001600160401b0381116200080a578401620001f3565b9262000ad28260208501356001600160401b03811162000b8a575b850162000416565b92909362000af68260408301356001600160401b03811162000518578301620001f3565b9262000b0683606084016200086f565b9262000b288160808501356001600160401b0381116200068f578501620001f3565b9262000b388260a0830162000478565b92620009f262000b4c8460c085016200058e565b9362000b5c8160e0860162000478565b93610100810135906001600160401b03821162000b7b575b0162000416565b62000b84600080fd5b62000b74565b62000b93600080fd5b62000aca565b62000ba2600080fd5b62000a91565b503462000bd8575b620002d46200055d62000bc536600462000a83565b9998909897919796929695939562001263565b62000be1600080fd5b62000bb0565b60009103126200044757565b503462000c33575b62000c0836600462000be7565b620002d47f00000000000000000000000000000000000000000000000000000000000000006200071d565b62000c3c600080fd5b62000bfb565b62000c7d6001600160a01b037f000000000000000000000000000000000000000000000000000000000000000016916001600160a01b031690565b1490565b6200021262000212620002129290565b62000cb66200010f6020936200019a9362000caa815190565b80835293849260200190565b95869101620002e7565b9062000cf662000212959362000ce762000cfe936080860190868203600088015262000c91565b90848203602086015262000c91565b936040830152565b606081840391015262000c91565b6001600160a01b03909116815262000212916040820191602081840391015262000c91565b506040513d6000823e3d90fd5b94939160009262000d5c8462000d55898262000367565b0162000380565b62000ea55762000d70818684868b62000eea565b803b62000d8562000d818762000c81565b9190565b1162000e8d57509262000e5a9262000178959262000e118962000e0162000db062000e609962000c81565b9662000ddc7f0000000000000000000000000000000000000000000000000000000000000000620006ce565b9462000de760405190565b630c4274f360e31b60208201529687946024860162000cc0565b6020820181038252038362000130565b62000e4a62000e1f60405190565b92839261064984018481106001600160401b0382111762000e7d575b61064962001910863962000d0c565b0391f5801562000e7357620006ce565b620006ce565b9262000e6c84620006ce565b90620017d7565b62000e5a62000d31565b62000e8762000119565b62000e3b565b93505050506200021292935062000e5a9150620006ce565b50505062000e5a91508062000ec462000212949562000e5a9362000367565b01546001600160a01b031690565b62000ee3906200021293926200030c565b906200030c565b9262000f7c9062000f8962000fa89362000f9b9562000f6a62000f1b620002129a62000f14600090565b5062000c81565b9862000e016106499662000f326020890162000161565b9780895262001f5960208a013962000ddc7f0000000000000000000000000000000000000000000000000000000000000000620006ce565b60405194859260208401928362000d0c565b9081038252038362000130565b60405193849260208401928362000ed2565b9081038252038262000130565b62000fbc62000fb5825190565b9160200190565b2090620002129162000fce30620006ce565b91605592600b9291604051926040840152602083015281520160ff81532090565b1562000ff757565b60405162461bcd60e51b815260206004820152603060248201527f4c756e61466163746f72793a2063616c6c6572206973206e6f7420746865207460448201526f393ab9ba32b2103337b93bb0b93232b960811b6064820152608490fd5b90620002129b9a9998979695949392916200107a620010743362000c42565b62000fef565b90620002129b9a99989796959493929162001095826200185d565b62001193565b80151562000470565b9050519062000178826200109b565b90620002129160208183031215620010a457620010ce600080fd5b620010a4565b91906200010f81620010ee816200019a9560209181520190565b8095620001a8565b95989691620002129a9894620011859662001158620011456200117e97620011368c62001166976200116e996101008301926000818503910152620010d4565b8c810360208e01529062000c91565b6001600160f81b031990931660408b0152565b88820360608a015262000c91565b986080870152565b6001600160a01b031660a0850152565b60c0830152565b60e0818503910152620010d4565b9a939891949a99929699979097506000620011b081998262000367565b01546001600160a01b0316620011c690620006ce565b620011d190620006ce565b620011dc90620006ce565b9963a7aa69ab96620011ed60405190565b9c8d9b8c9a8b9a60e01b8b52620012089960048c01620010f6565b03915a94602095f190811562001253575b60009162001225575090565b62000212915060203d81116200124b575b62001242818362000130565b810190620010b3565b503d62001236565b6200125d62000d31565b62001219565b620002129a99989796959493929190600062001055565b90620002129d9c9b9a9998979695949392916200129b620010743362000c42565b90620002129d9c9b9a999897969594939291620012b8826200185d565b620014df565b50620002129060208101906200058e565b818352602090920191906000825b828210620012ec575050505090565b909192936200131f62001318600192620013078886620012be565b6001600160a01b0316815260200190565b9560200190565b93920190620012dd565b9037565b8183526020926200019a919084019384936001600160fb1b03811162001358575b0293849162001329565b62001361600080fd5b6200134e565b90620002129291620010d4565b9035601e193683900301811215620013bb575b01602081359101916001600160401b038211620013ac575b3682900383136200044757565b620013b5600080fd5b6200139f565b620013c4600080fd5b62001387565b818352916020019081620013e16020830284019490565b92836000925b848410620013f85750505050505090565b90919293949560206200142a6200142383856001950388526200141c8b8862001374565b9062001367565b9860200190565b940194019294939190620013e7565b9a9896918b620014c1966200149d620002129f9d999760406200148c620014d09e996200147d620014b399620014ab996101008a01918a830360008c0152620010d4565b90878203602089015262000c91565b9401906001600160f81b0319169052565b8d820360608f015262000c91565b9360808c0152565b89830360a08b0152620012cf565b9186830360c08801526200132d565b9260e0818503910152620013ca565b9c95979099929891969b949c9a939a506000620014fe819b8262000367565b01546001600160a01b03166200151490620006ce565b6200151f90620006ce565b6200152a90620006ce565b9b639d35420b986200153b60405190565b9e8f9d8e9c8d9c60e01b8d52620012089b60048e0162001439565b620002129c9b9a9998979695949392919060006200127a565b90620002129493929162001587620010743362000c42565b9062000212949392916200159b826200185d565b620015cf565b91620002129391620015c09160408501918583036000870152620010d4565b91602081840391015262000c91565b62000ec4620015fa62000e5a62000e5a62000e5a60209899966200161c965060009586918262000367565b926200162863ca6c974d916200160f60405190565b9889978896879560e01b90565b855260048501620015a1565b03925af1908115620012535760009162001225575090565b620002129392919060006200156f565b9062000212959493929162001669620010743362000c42565b906200021295949392916200167e826200185d565b620016ba565b60608082526200021295939192620016ac92620016a492850191620010d4565b936020830152565b604081840391015262000c91565b60209462001628620016ec62000e5a62000e5a62000e5a6200170a9762000ec4979c999a9c5060009788918262000367565b9463f54a736392620016fd60405190565b998a988997889660e01b90565b86526004860162001684565b620002129493929190600062001650565b62000212604062000161565b906001600160a01b03905b9181191691161790565b906200175c620002126200176492620006ce565b825462001733565b9055565b9060ff60a01b9060a01b6200173e565b906200178b620002126200176492151590565b825462001768565b6200017891620017c490602090620017bd620017b682516001600160a01b031690565b8562001748565b0151151590565b9062001778565b90620001789162001793565b906200181562000178926200180d600162001804620017f562001727565b6001600160a01b039096168652565b15156020850152565b600062000367565b620017cb565b156200182357565b60405162461bcd60e51b81526020600482015260126024820152714c756e613a20496e76616c6964204c756e6160701b6044820152606490fd5b62001874620001789162000d556000918262000367565b6200181b565b6200188462001727565b906000825260006020830152565b620002126200187a565b9062000178620018d96000620018b162001727565b9462000d55620018ca838301546001600160a01b031690565b6001600160a01b031687840152565b15156020840152565b62000212906200189c565b6200190962000212916200190062001892565b50600062000367565b620018e256fe608060405261001561000f6101ba565b906101dc565b60405160e7610562823960e790f35b601f01601f191690565b50634e487b7160e01b600052604160045260246000fd5b90601f01601f191681019081106001600160401b0382111761006657604052565b61006e61002e565b604052565b9061008761008060405190565b9283610045565b565b600080fd5b6001600160a01b031690565b90565b6001600160a01b0381160361008957565b905051906100878261009d565b6020906100da906001600160401b0381116100de57601f01601f191690565b0190565b61002461002e565b60005b8381106100f95750506000910152565b81810151838201526020016100e9565b9291906100879161012161011c836100bb565b610073565b94828652602086019183820111156100e65761013b600080fd5b6100e6565b9061009a9181601f8201121561015c575b602081519101610109565b610164600080fd5b610151565b919061009a906040848203126101ad575b61018481856100ae565b602085015190946001600160401b0382116101a0575b01610140565b6101a8600080fd5b61019a565b6101b5600080fd5b61017a565b6101d8610649803803806101cd81610073565b928339810190610169565b9091565b610087916000916101f5565b61009a61009a61009a9290565b916101ff8361025e565b815161021261020e60006101e8565b9190565b11908115610230575b50610224575050565b61022d916103f7565b50565b90503861021b565b61009a9061008e906001600160a01b031682565b61009a90610238565b61009a9061024c565b61026781610360565b6102917fbc7cd75a20ee27fd9adebab32041f755214dbc6bffa90cc0225b39da2e5c2d3b91610255565b9061029b60405190565b600090a2565b156102a857565b60405162461bcd60e51b815260206004820152602d60248201527f455243313936373a206e657720696d706c656d656e746174696f6e206973206e60448201526c1bdd08184818dbdb9d1c9858dd609a1b6064820152608490fd5b0390fd5b61009a7f360894a13ba1a3210667c828492db98dca3e2076cc3735a920a3ca505d382bbc6101e8565b9061034061009a61035c92610255565b82546001600160a01b0319166001600160a01b03919091161790565b9055565b6100879061037561037082610388565b6102a1565b600061038261009a610307565b01610330565b3b61039661020e60006101e8565b1190565b906103a761011c836100bb565b918252565b6103b6602761039a565b7f416464726573733a206c6f772d6c6576656c2064656c65676174652063616c6c6020820152660819985a5b195960ca1b604082015290565b61009a6103ac565b61009a916104036103ef565b91610428565b3d15610423576104183d61039a565b903d6000602084013e565b606090565b60008061009a9493610438606090565b50805190602001845af461044a610409565b9161049c565b1561045757565b60405162461bcd60e51b815260206004820152601d60248201527f416464726573733a2063616c6c20746f206e6f6e2d636f6e74726163740000006044820152606490fd5b9192606091156104d157505081516104b761020e60006101e8565b146104c0575090565b6104cc61009a91610388565b610450565b9093926100879250610519565b6104ff6100246020936100da936104f3815190565b80835293849260200190565b958691016100e6565b602080825261009a929101906104de565b9150610523825190565b61053061020e60006101e8565b111561053f5750805190602001fd5b6103039061054c60405190565b62461bcd60e51b81529182916004830161050856fe608060405236156012575b6010601c565b005b6018601c565b600a565b60226024565b565b6022602c6030565b608f565b6036607e565b90565b6036603660369290565b60367f360894a13ba1a3210667c828492db98dca3e2076cc3735a920a3ca505d382bbc6039565b6001600160a01b031690565b60369054606a565b60366000608a60366043565b016076565b600091508190368280378136915af43d6000803e1560ac573d6000f35b3d6000fdfea2646970667358221220021b9ba7c68e1565a4a3cea47ee25e0a7e1a19b564ab17018cdfb59abd4c018c64736f6c63430008110033608060405261001561000f6101ba565b906101dc565b60405160e7610562823960e790f35b601f01601f191690565b50634e487b7160e01b600052604160045260246000fd5b90601f01601f191681019081106001600160401b0382111761006657604052565b61006e61002e565b604052565b9061008761008060405190565b9283610045565b565b600080fd5b6001600160a01b031690565b90565b6001600160a01b0381160361008957565b905051906100878261009d565b6020906100da906001600160401b0381116100de57601f01601f191690565b0190565b61002461002e565b60005b8381106100f95750506000910152565b81810151838201526020016100e9565b9291906100879161012161011c836100bb565b610073565b94828652602086019183820111156100e65761013b600080fd5b6100e6565b9061009a9181601f8201121561015c575b602081519101610109565b610164600080fd5b610151565b919061009a906040848203126101ad575b61018481856100ae565b602085015190946001600160401b0382116101a0575b01610140565b6101a8600080fd5b61019a565b6101b5600080fd5b61017a565b6101d8610649803803806101cd81610073565b928339810190610169565b9091565b610087916000916101f5565b61009a61009a61009a9290565b916101ff8361025e565b815161021261020e60006101e8565b9190565b11908115610230575b50610224575050565b61022d916103f7565b50565b90503861021b565b61009a9061008e906001600160a01b031682565b61009a90610238565b61009a9061024c565b61026781610360565b6102917fbc7cd75a20ee27fd9adebab32041f755214dbc6bffa90cc0225b39da2e5c2d3b91610255565b9061029b60405190565b600090a2565b156102a857565b60405162461bcd60e51b815260206004820152602d60248201527f455243313936373a206e657720696d706c656d656e746174696f6e206973206e60448201526c1bdd08184818dbdb9d1c9858dd609a1b6064820152608490fd5b0390fd5b61009a7f360894a13ba1a3210667c828492db98dca3e2076cc3735a920a3ca505d382bbc6101e8565b9061034061009a61035c92610255565b82546001600160a01b0319166001600160a01b03919091161790565b9055565b6100879061037561037082610388565b6102a1565b600061038261009a610307565b01610330565b3b61039661020e60006101e8565b1190565b906103a761011c836100bb565b918252565b6103b6602761039a565b7f416464726573733a206c6f772d6c6576656c2064656c65676174652063616c6c6020820152660819985a5b195960ca1b604082015290565b61009a6103ac565b61009a916104036103ef565b91610428565b3d15610423576104183d61039a565b903d6000602084013e565b606090565b60008061009a9493610438606090565b50805190602001845af461044a610409565b9161049c565b1561045757565b60405162461bcd60e51b815260206004820152601d60248201527f416464726573733a2063616c6c20746f206e6f6e2d636f6e74726163740000006044820152606490fd5b9192606091156104d157505081516104b761020e60006101e8565b146104c0575090565b6104cc61009a91610388565b610450565b9093926100879250610519565b6104ff6100246020936100da936104f3815190565b80835293849260200190565b958691016100e6565b602080825261009a929101906104de565b9150610523825190565b61053061020e60006101e8565b111561053f5750805190602001fd5b6103039061054c60405190565b62461bcd60e51b81529182916004830161050856fe608060405236156012575b6010601c565b005b6018601c565b600a565b60226024565b565b6022602c6030565b608f565b6036607e565b90565b6036603660369290565b60367f360894a13ba1a3210667c828492db98dca3e2076cc3735a920a3ca505d382bbc6039565b6001600160a01b031690565b60369054606a565b60366000608a60366043565b016076565b600091508190368280378136915af43d6000803e1560ac573d6000f35b3d6000fdfea2646970667358221220021b9ba7c68e1565a4a3cea47ee25e0a7e1a19b564ab17018cdfb59abd4c018c64736f6c63430008110033a2646970667358221220ccd08491e8c310aef008d004b10f96abdcb51beac3f52678229eb7ceefd76db464736f6c6343000811003360c06040523462000052575b62000020620000196200012f565b9062000182565b6040516129d9620001a18239608051818181610c330152611855015260a051818181610f1d015261192601526129d990f35b6200005b600080fd5b6200000b565b600080fd5b50634e487b7160e01b600052604160045260246000fd5b90601f01601f191681019081106001600160401b038211176200009f57604052565b620000a962000066565b604052565b90620000c5620000bd60405190565b92836200007d565b565b6001600160a01b031690565b90565b6001600160a01b038116036200006157565b90505190620000c582620000d6565b9190620000d39060408482031262000120575b620001168185620000e8565b93602001620000e8565b62000129600080fd5b6200010a565b6200015262002b7a803803806200014681620000ae565b928339810190620000f7565b9091565b620000d390620000c7906001600160a01b031682565b620000d39062000156565b620000d3906200016c565b90620001926200019b9262000177565b60805262000177565b60a05256fe60806040526004361015610018575b361561001657005b005b60003560e01c806223de29146101cf57806301ffc9a7146101c6578063150b7a02146101bd5780631ba452ac146101b45780632a1690cb146101ab5780632e334452146101a257806330c72d6e1461019957806352a9674b146101905780636102495c146101875780636213a7981461017e57806362ccde241461017557806364ddaf191461016c578063820e93f5146101635780638315ed851461015a5780639d35420b14610151578063a7aa69ab14610148578063a8b56de21461013f578063bc197c8114610136578063ca6c974d1461012d578063d087d28814610124578063f23a6e611461011b5763f54a73630361000e576101166111b8565b61000e565b50610116611116565b50610116611080565b50610116611068565b50610116610fe0565b50610116610f06565b50610116610ee2565b50610116610df0565b50610116610c1c565b50610116610bb3565b50610116610b7c565b50610116610b1e565b50610116610a43565b5061011661097f565b50610116610933565b506101166107d6565b506101166106fd565b506101166106b4565b5061011661060d565b50610116610426565b5061011661038e565b5061011661031c565b600080fd5b6001600160a01b031690565b90565b6001600160a01b0381165b036101d857565b9050359061020b826101ec565b565b806101f7565b9050359061020b8261020d565b909182601f83011215610263575b60208235926001600160401b038411610256575b01928284011161024e57565b61020b600080fd5b61025e600080fd5b610242565b61026b600080fd5b61022e565b9060c08282031261030f575b61028681836101fe565b9261029482602085016101fe565b926102a283604083016101fe565b926102b08160608401610213565b926102f16102d38360808601356001600160401b038111610302575b8601610220565b93909460a0810135906001600160401b0382116102f5575b01610220565b9091565b6102fd600080fd5b6102eb565b61030a600080fd5b6102cc565b610317600080fd5b61027c565b5034610343575b61032e366004610270565b505050505050505061001660405190565b0390f35b61034b600080fd5b610323565b6001600160e01b031981166101f7565b9050359061020b82610350565b906101e9916020818303121561036057610385600080fd5b610360565b9052565b50346103bd575b61033f6103ab6103a636600461036d565b61208c565b60405191829182901515815260200190565b6103c5600080fd5b610395565b608081830312610419575b6103df82826101fe565b926102f16103f084602085016101fe565b936103fe8160408601610213565b936060810135906001600160401b0382116102f55701610220565b610421600080fd5b6103d5565b5034610462575b61033f61044761043e3660046103ca565b9392909261203d565b604051918291826001600160e01b0319909116815260200190565b61046a600080fd5b61042d565b601f01601f191690565b50634e487b7160e01b600052604160045260246000fd5b90601f01601f191681019081106001600160401b038211176104b157604052565b6104b9610479565b604052565b9061020b6104cb60405190565b9283610490565b6104f06020916001600160401b0381116104f457601f01601f191690565b0190565b61046f610479565b90826000939282370152565b92919061020b9161052061051b836104d2565b6104be565b94828652602086019183820111156104fc5761053a600080fd5b6104fc565b906101e99181601f8201121561055b575b602081359101610508565b610563600080fd5b610550565b6001600160f81b031981166101f7565b9050359061020b82610568565b608081830312610600575b6105ac8282356001600160401b0381116105f3575b830161053f565b926101e96105bd8460208501610578565b936105dd8160408601356001600160401b0381116105e6575b860161053f565b93606001610213565b6105ee600080fd5b6105d6565b6105fb600080fd5b6105a5565b610608600080fd5b610590565b503461063e575b61033f61062e610625366004610585565b9291909161171a565b6040519182918290815260200190565b610646600080fd5b610614565b600091031261024e57565b60005b8381106106695750506000910152565b8181015183820152602001610659565b61069a61046f6020936104f09361068e815190565b80835293849260200190565b95869101610656565b60208082526101e992910190610679565b50346106dd575b6106c636600461064b565b61033f6106d16116f0565b604051918291826106a3565b6106e5600080fd5b6106bb565b90815260408101929161020b9160200152565b503461072d575b61070f36600461064b565b610717611708565b9061033f61072460405190565b928392836106ea565b610735600080fd5b610704565b9160a0838303126107c9575b6107628284356001600160401b0381116107bc575b8501610220565b9290936107838260208301356001600160401b0381116105f357830161053f565b926101e96107948460408501610578565b936107b38160608601356001600160401b0381116105e657860161053f565b93608001610213565b6107c4600080fd5b61075b565b6107d1600080fd5b610746565b50346107fa575b61033f6103ab6107ee36600461073a565b94939093929192611814565b610802600080fd5b6107dd565b50634e487b7160e01b600052600060045260246000fd5b50634e487b7160e01b600052602260045260246000fd5b9060016002830492168015610858575b602083101461085057565b61020b61081e565b91607f1691610845565b8054600093929161087f61087583610835565b8085529360200190565b91600181169081156108d1575060011461089857505050565b6108ab9192939450600052602060002090565b916000925b8184106108bd5750500190565b8054848401526020909301926001016108b0565b92949550505060ff1916825215156020020190565b906101e991610862565b9061020b61090a9261090160405190565b938480926108e6565b0383610490565b6101e991156108f057610922610807565b6108f0565b6101e960006001610911565b5034610950575b61094536600461064b565b61033f6106d1610927565b610958600080fd5b61093a565b6101e9916008021c81565b906101e9915461095d565b6101e960006003610968565b503461099c575b61099136600461064b565b61033f61062e610973565b6109a4600080fd5b610986565b608081830312610a36575b6109cf8282356001600160401b0381116105f357830161053f565b926101e96109f28460208501356001600160401b038111610a29575b850161053f565b93610a008160408601610213565b936060810135906001600160401b038211610a1c575b0161053f565b610a24600080fd5b610a16565b610a31600080fd5b6109eb565b610a3e600080fd5b6109b4565b5034610a66575b610a61610a583660046109a9565b92919091611420565b604051005b610a6e600080fd5b610a4a565b80546000939291610a8661087583610835565b91600181169081156108d15750600114610a9f57505050565b610ab29192939450600052602060002090565b916000925b818410610ac45750500190565b805484840152602090930192600101610ab7565b906101e991610a73565b9061020b61090a92610af360405190565b93848092610ad8565b6101e99115610ae257610b0d610807565b610ae2565b6101e960006002610afc565b5034610b3b575b610b3036600461064b565b61033f6106d1610b12565b610b43600080fd5b610b25565b906102f191602081830312610b6f575b8035906001600160401b0382116102f55701610220565b610b77600080fd5b610b58565b5034610b9a575b61033f6103ab610b94366004610b48565b906118f0565b610ba2600080fd5b610b83565b6101e960006004610911565b5034610bd0575b610bc536600461064b565b61033f6106d1610ba7565b610bd8600080fd5b610bba565b6101e9906101dd906001600160a01b031682565b6101e990610bdd565b6101e990610bf1565b61038a90610bfa565b60208101929161020b9190610c03565b5034610c5f575b610c2e36600461064b565b61033f7f00000000000000000000000000000000000000000000000000000000000000005b60405191829182610c0c565b610c67600080fd5b610c23565b909182601f83011215610caa575b60208235926001600160401b038411610c9d575b01926020830284011161024e57565b610ca5600080fd5b610c8e565b610cb2600080fd5b610c7a565b91909161010081840312610de3575b610ce28382356001600160401b038111610dd6575b8301610220565b929093610d038160208501356001600160401b038111610a2957850161053f565b92610d118260408301610578565b92610d318360608401356001600160401b038111610dc9575b840161053f565b92610d3f8160808501610213565b92610d5f8260a08301356001600160401b038111610dbc575b8301610c6c565b9290936102f1610d848360c08601356001600160401b038111610daf575b8601610c6c565b93909460e0810135906001600160401b038211610da2575b01610c6c565b610daa600080fd5b610d9c565b610db7600080fd5b610d7d565b610dc4600080fd5b610d58565b610dd1600080fd5b610d2a565b610dde600080fd5b610cdb565b610deb600080fd5b610cc6565b5061033f6103ab610e02366004610cb7565b9a999099989198979297969396959495611caa565b9161010083830312610ed5575b610e3f8284356001600160401b0381116107bc578501610220565b929093610e608260208301356001600160401b0381116105f357830161053f565b92610e6e8360408401610578565b92610e8d8160608501356001600160401b038111610a2957850161053f565b92610e9b8260808301610213565b926102f1610eac8460a085016101fe565b93610eba8160c08601610213565b9360e0810135906001600160401b0382116102f55701610220565b610edd600080fd5b610e24565b5061033f6103ab610ef4366004610e17565b98979097969196959295949394611c1f565b5034610f41575b610f1836600461064b565b61033f7f0000000000000000000000000000000000000000000000000000000000000000610c53565b610f49600080fd5b610f0d565b909160a082840312610fd3575b610f6583836101fe565b92610f7381602085016101fe565b92610f928260408301356001600160401b038111610dbc578301610c6c565b9290936102f1610fb68360608601356001600160401b038111610daf578601610c6c565b9390946080810135906001600160401b0382116102f55701610220565b610fdb600080fd5b610f5b565b5034611007575b61033f610447610ff8366004610f4e565b96959095949194939293612070565b61100f600080fd5b610fe7565b9160408383031261105b575b6101e961103e8385356001600160401b038111610302578601610220565b9390946020810135906001600160401b038211610a1c570161053f565b611063600080fd5b611020565b5061033f6103ab61107a366004611014565b91611d0b565b503461109d575b61109236600461064b565b61033f61062e6111e4565b6110a5600080fd5b611087565b919060a083820312611109575b6110c181846101fe565b926110cf82602083016101fe565b926102f16110e08460408501610213565b936110ee8160608601610213565b936080810135906001600160401b0382116102f55701610220565b611111600080fd5b6110b7565b503461113a575b61033f61044761112e3660046110aa565b94939093929192612056565b611142600080fd5b61111d565b6101e991926060828503126111ab575b6111738483356001600160401b03811161119e575b8401610220565b9390946111838160208601610213565b936040810135906001600160401b038211610a1c570161053f565b6111a6600080fd5b61116c565b6111b3600080fd5b611157565b5061033f6103ab6111ca366004611147565b92919091611d43565b6101e99081565b6101e990546111d3565b6101e960056111da565b6101e99060081c5b60ff1690565b6101e990546111ee565b6101e9906111f6565b6101e99054611206565b6111f66101e96101e99290565b1561122d57565b60405162461bcd60e51b815260206004820152602e60248201527f496e697469616c697a61626c653a20636f6e747261637420697320616c72656160448201526d191e481a5b9a5d1a585b1a5e995960921b6064820152608490fd5b0390fd5b9060ff905b9181191691161790565b6111f66101e96101e99260ff1690565b906112bc6101e96112c39261129c565b825461128d565b9055565b9061ff009060081b611292565b906112e46101e96112c392151590565b82546112c7565b61038a90611219565b60208101929161020b91906112eb565b92611353919261131b61131760006111fc565b1590565b9384806113f6575b80156113b1575b61133390611226565b6001958561134a61134389611219565b60006112ac565b6113a157611414565b61135a5750565b6113656000806112d4565b61139c7f7f26b83ff96e1f2b6a682f133852f6798a09c465da95921460cefb38474024989161139360405190565b918291826112f4565b0390a1565b6113ac8760006112d4565b611414565b506113c66113176113c130610bfa565b611439565b801561132a57506113336113da600061120f565b6113ee6113e76001611219565b9160ff1690565b14905061132a565b50611401600061120f565b61140e6113e76001611219565b10611323565b9061020b9392916116bb565b9061020b939291611304565b6101e96101e96101e99290565b3b61144b611447600061142c565b9190565b1190565b9160001960089290920291821b911b611292565b91906114746101e96112c39361142c565b90835461144f565b61020b91600091611463565b818110611493575050565b806114a1600060019361147c565b01611488565b9190601f81116114b657505050565b6114c861020b93600052602060002090565b906020601f8401819004830193106114ea575b6020601f909101040190611488565b90915081906114db565b906114fd815190565b906001600160401b0382116115c7575b6115218261151b8554610835565b856114a7565b602090601f831160011461155c576112c3929160009183611551575b5050600019600883021c1916906002021790565b01519050388061153d565b601f1983169161157185600052602060002090565b9260005b8181106115af57509160029391856001969410611596575b50505002019055565b01516000196008601f8516021c1916905538808061158d565b91936020600181928787015181550195019201611575565b6115cf610479565b61150d565b9061020b916114f4565b906115e7815190565b906001600160401b038211611685575b6116058261151b8554610835565b602090601f8311600114611634576112c3929160009183611551575050600019600883021c1916906002021790565b601f1983169161164985600052602060002090565b9260005b81811061166d575091600293918560019694106115965750505002019055565b9193602060018192878701518155019501920161164d565b61168d610479565b6115f7565b9061020b916115de565b9060001990611292565b906116b46101e96112c39290565b825461169c565b916116d96116e0926116d261020b969560016115d4565b6002611692565b60036116a6565b60046115d4565b6101e990610ae2565b6117026116fd60026116e7565b612732565b91505090565b6117156116fd60026116e7565b509091565b6101e99392909161173161172c6111e4565b612343565b92612752565b8015156101f7565b9050519061020b82611737565b906101e9916020818303121561173f57611764600080fd5b61173f565b919061046f81611780816104f09560209181520190565b80956104fc565b906117a76117a0611796845190565b8084529260200190565b9260200190565b9060005b8181106117b85750505090565b9091926117d56117ce6001928651815260200190565b9460200190565b9291016117ab565b916101e993916117f99160408501918583036000870152611769565b916020818403910152611787565b506040513d6000823e3d90fd5b9290949361184760209561184d9461182a600090565b506118386116fd60026116e7565b5094909561173161172c6111e4565b916121fd565b6118996118797f0000000000000000000000000000000000000000000000000000000000000000610bfa565b916118a463ea50d0e49161188c60405190565b9788968795869560e01b90565b8552600485016117dd565b03915afa9081156118e3575b6000916118bb575090565b6101e9915060203d81116118dc575b6118d48183610490565b81019061174c565b503d6118ca565b6118eb611807565b6118b0565b60209061191e61190e6119096119046111e4565b6119b1565b612611565b61191860036111da565b9061214f565b6118996118797f0000000000000000000000000000000000000000000000000000000000000000610bfa565b9061195761051b836104d2565b918252565b369037565b9061020b6119776119718461194a565b936104d2565b601f19016020840161195c565b50634e487b7160e01b600052601260045260246000fd5b81156119a5570490565b6119ad611984565b0490565b6119ba81611a3d565b906119ca6001926104f08461142c565b91806119d584611961565b936020018401905b6119e8575b50505090565b611a1c9060001901926f181899199a1a9b1b9c1cb0b131b232b360811b600a82061a8453611a16600a61142c565b9061199b565b9081611a2b611447600061142c565b14611a38579091816119dd565b6119e2565b611a47600061142c565b907a184f03e93ff9f4daa797ed6e38ed64bf6a1f010000000000000000611a6d8161142c565b821015611bbf575b506d04ee2d6d415b85acef8100000000611a8e8161142c565b821015611b9d575b50662386f26fc10000611aa88161142c565b821015611b7b575b506305f5e100611abf8161142c565b821015611b59575b50612710611ad48161142c565b821015611b37575b506064611ae88161142c565b821015611b15575b50611afe611447600a61142c565b1015611b075790565b6101e9906104f0600161142c565b611b3091611a16611b259261142c565b916104f0600261142c565b9038611af0565b611b5291611a16611b479261142c565b916104f0600461142c565b9038611adc565b611b7491611a16611b699261142c565b916104f0600861142c565b9038611ac7565b611b9691611a16611b8b9261142c565b916104f0601061142c565b9038611ab0565b611bb891611a16611bad9261142c565b916104f0602061142c565b9038611a96565b611bda91611a16611bcf9261142c565b916104f0604061142c565b9038611a75565b15611be857565b60405162461bcd60e51b815260206004820152600f60248201526e496e76616c696420706173736b657960881b6044820152606490fd5b92611c4a999897969592611c459592611c4095611c3a600090565b50611c4f565b611be1565b611d82565b600190565b9290949361184760209561184d94611c65600090565b50611c736116fd60026116e7565b5094909561173161172c611c92565b906116b46101e96112c39261142c565b611c9c60056111da565b6101e9600182016005611c82565b92611c4a9b9a999897969592611cc79592611c4095611c3a600090565b611ec1565b15611cd357565b60405162461bcd60e51b815260206004820152601060248201526f496e76616c6964207265636f7665727960801b6044820152606490fd5b611d25611c4a9392611d2a92611d1f600090565b50611d2f565b611ccc565b611d5d565b60209061191e61190e611909611904611c92565b611d25611c4a949392611d5892611d1f600090565b611d68565b61020b906002611692565b906116e061020b9260036116a6565b6101e9913691610508565b9161020b93611d9091611d77565b91612010565b15611d9d57565b60405162461bcd60e51b815260206004820152601360248201527277726f6e67206172726179206c656e6774687360681b6044820152606490fd5b50634e487b7160e01b600052601160045260246000fd5b6001906000198114611dff570190565b6104f0611dd8565b50634e487b7160e01b600052603260045260246000fd5b91602091811015611e2f575b020190565b611e2a611e07565b356101e9816101ec565b356101e98161020d565b903590601e193682900301821215611e8e575b0160208135916001600160401b038311611e81575b019136829003831361024e57565b611e89600080fd5b611e73565b611e96600080fd5b611e5e565b906102f192602091811015611eb4575b02810190611e4b565b611ebc611e07565b611eab565b909194929395611ece8390565b95611ee28588148681611fc8575b50611d96565b85600096611ef26114478961142c565b03611f5f575050611f028561142c565b865b811015611f5557611f4e81611f498a611d90611f37848b611f31611f2c611f049a8e8e611e1e565b611e37565b94611e9b565b611f438d93929361142c565b92611d77565b611def565b9050611f02565b5095505050505050565b939291909795611f6e9061142c565b875b811015611fbd57611fb681611f498b8a611d90611fb0858d611f31611fab8f9b8f9c8f611f2c611f709f8490611fa593611e1e565b99611e1e565b611e41565b90611d77565b9050611f6e565b509650505050505050565b905087611fd5600061142c565b8114918215611fe7575b505038611edc565b9150143880611fdf565b3d1561200b576120003d61194a565b903d6000602084013e565b606090565b6000928392602082019151925af161202e612029611ff1565b911590565b6120355750565b602081519101fd5b505050505061204a600090565b50630a85bd0160e11b90565b505050505050612064600090565b5063f23a6e6160e01b90565b5050505050505050612080600090565b5063bc197c8160e01b90565b630a85bd0160e11b6001600160e01b03198216149081156120ca575b81156120b2575090565b6301ffc9a760e01b91506001600160e01b0319161490565b6001600160e01b03198116630271189760e51b1491506120a8565b602080916001600160401b0381116120fc57020190565b611e2a610479565b9061195761051b836120e5565b9061020b61197761212184612104565b936120e5565b9060208091612134845190565b811015612142575b02010190565b61214a611e07565b61213c565b61216161215c602161142c565b612111565b9161216c600061142c565b60206121778161142c565b8210156121c557906121b3918110156121b8575b611f496121a66001600160f81b031986841a60f81b16612597565b6121b08388612127565b52565b61216c565b6121c0611e07565b61218b565b50506101e991506121b06121d9602061142c565b84612127565b91906121ea565b9290565b82018092116121f557565b61020b611dd8565b919261220c61215c606061142c565b91612217600061142c565b60206122228161142c565b8210156123065790816122da928210156122f9575b61225c6122526001600160f81b031989851a60f81b16612597565b6121b08489612127565b808210156122ec575b61229b6122806001600160f81b031986851a60f81b16612597565b6121b061229561228f8561142c565b866121df565b89612127565b8110156122df575b611f496122be6001600160f81b031989841a60f81b16612597565b6121b06122d46122ce604061142c565b856121df565b88612127565b612217565b6122e7611e07565b6122a3565b6122f4611e07565b612265565b612301611e07565b612237565b5050509250905090565b6104f061232892602092612322815190565b94859290565b93849101610656565b6101e991612310565b6101e99061142c565b6000612387602092612353606090565b5061237a61236060405190565b808601928352918290602081015b90810382520382610490565b6040515b91829182612331565b039060025afa156123b3575b6000516101e9906123a39061233a565b6123ad602061142c565b90612463565b6123bb611807565b612393565b818102929181159184041417156121f557565b906001602091612134845190565b60019080156123ee570390565b6123f6611dd8565b0390565b6101e99061240e6114476101e99460ff1690565b901c90565b1561241a57565b60405162461bcd60e51b815280611289600482016020808252818101527f537472696e67733a20686578206c656e67746820696e73756666696369656e74604082015260600190565b919060029061249461248f6124808361247b8661142c565b6123c0565b6124898561142c565b906121df565b611961565b9160009160306124ac6124a68561142c565b866123d3565b536124e46124db600f60fb1b9261247b6001958695881a6124d56124cf8861142c565b8b6123d3565b5361142c565b6124898361142c565b915b612507575b50506101e992936125016114476101e99361142c565b14612413565b90946125128261142c565b8611156125915761257e612578839261255b61253e6f181899199a1a9b1b9c1cb0b131b232b360811b90565b612548600f61142c565b83166010811015612584575b1a60f81b90565b861a6125678a896123d3565b536125726004611219565b906123fa565b966123e1565b916124e6565b61258c611e07565b612554565b946124eb565b6125b96125af6101e9926125a9600090565b5061233a565b61257260f8611219565b61142c565b6125c8601a61194a565b7f19457468657265756d205369676e6564204d6573736167653a0a000000000000602082015290565b6101e96125be565b9161260b6101e9949361260b93612310565b90612310565b6101e961265691612620600090565b506101e961262c6125f1565b61263b611904845190565b5190565b9061236e61264860405190565b9485936020850193846125f9565b612668612661825190565b9160200190565b2090565b9050519061020b8261020d565b92919061020b9161268c61051b836104d2565b9482865260208601918382011115610656576126a6600080fd5b610656565b906101e99181601f820112156126c7575b602081519101612679565b6126cf600080fd5b6126bc565b9091606082840312612725575b6101e96126ee848461266c565b936126fc816020860161266c565b936040810151906001600160401b038211612718575b016126ab565b612720600080fd5b612712565b61272d600080fd5b6126e1565b61274b906020612740825190565b8183010191016126d4565b9192909190565b9091939261275e600090565b506020926127a961279b8261278c61277e6127788961142c565b886123d3565b516001600160f81b03191690565b16926001600160f81b03191690565b916001600160f81b03191690565b036128d7576127b961248f825190565b6128166114476127c7835190565b936127e1600098856127d88b61142c565b9788928d6128f0565b506127fd6127ee60405190565b809261236e8a83019182612331565b612808612661825190565b20926126566127ee60405190565b036128c55761285b6128526128a1926101e99785878961283b61248f612480839b5190565b968794612852878761284b885190565b82896128f0565b5060405161237e565b039060025afa156128b8575b8651612891909161263761287a60405190565b8b8101948552602080825290948590030184610490565b9261289b8961142c565b916128f0565b039060025afa156128b0575190565b612637611807565b6128c0611807565b612867565b60405163ebab5d2960e01b8152600490fd5b604051637e49a3c960e11b8152600490fd5b156101d857565b909291946128fc606090565b5061291f61290a86886121df565b6129186114476121e6875190565b10156128e9565b602095612941612937866129328a61142c565b6121df565b966129328961142c565b955b6129576101e983612932896129328d61142c565b811015612998576129579161293261298d836101e9948801518b8a01526129876129808d61142c565b80926121df565b9a6121df565b989250509150612943565b50509450509150509056fea26469706673582212209167051797bd13dc7263938632d4a22d6a452794c46bf190cdebb66e44dffeb664736f6c63430008110033",
  "devdoc": {
    "kind": "dev",
    "methods": {},
    "version": 1
  },
  "userdoc": {
    "kind": "user",
    "methods": {},
    "version": 1
  },
  "storageLayout": {
    "storage": [
      {
        "astId": 6614,
        "contract": "contracts/LunaFactory.sol:LunaFactory",
        "label": "LunaNameToDetails",
        "offset": 0,
        "slot": "0",
        "type": "t_mapping(t_string_memory_ptr,t_struct(LunaDetails)6609_storage)"
      }
    ],
    "types": {
      "t_address": {
        "encoding": "inplace",
        "label": "address",
        "numberOfBytes": "20"
      },
      "t_bool": {
        "encoding": "inplace",
        "label": "bool",
        "numberOfBytes": "1"
      },
      "t_mapping(t_string_memory_ptr,t_struct(LunaDetails)6609_storage)": {
        "encoding": "mapping",
        "key": "t_string_memory_ptr",
        "label": "mapping(string => struct LunaStorage.LunaDetails)",
        "numberOfBytes": "32",
        "value": "t_struct(LunaDetails)6609_storage"
      },
      "t_string_memory_ptr": {
        "encoding": "bytes",
        "label": "string",
        "numberOfBytes": "32"
      },
      "t_struct(LunaDetails)6609_storage": {
        "encoding": "inplace",
        "label": "struct LunaStorage.LunaDetails",
        "members": [
          {
            "astId": 6606,
            "contract": "contracts/LunaFactory.sol:LunaFactory",
            "label": "walletAddress",
            "offset": 0,
            "slot": "0",
            "type": "t_address"
          },
          {
            "astId": 6608,
            "contract": "contracts/LunaFactory.sol:LunaFactory",
            "label": "isUsed",
            "offset": 20,
            "slot": "0",
            "type": "t_bool"
          }
        ],
        "numberOfBytes": "32"
      }
    }
  }
}